{
  "_format": "hh-sol-artifact-1",
  "contractName": "Voting",
  "sourceName": "contracts/VotingToken.sol",
  "abi": [
    {
      "inputs": [],
      "stateMutability": "nonpayable",
      "type": "constructor"
    },
    {
      "anonymous": false,
      "inputs": [
        {
          "indexed": true,
          "internalType": "address",
          "name": "owner",
          "type": "address"
        },
        {
          "indexed": true,
          "internalType": "address",
          "name": "spender",
          "type": "address"
        },
        {
          "indexed": false,
          "internalType": "uint256",
          "name": "value",
          "type": "uint256"
        }
      ],
      "name": "Approval",
      "type": "event"
    },
    {
      "anonymous": false,
      "inputs": [
        {
          "indexed": true,
          "internalType": "address",
          "name": "from",
          "type": "address"
        },
        {
          "indexed": true,
          "internalType": "address",
          "name": "to",
          "type": "address"
        },
        {
          "indexed": false,
          "internalType": "uint256",
          "name": "value",
          "type": "uint256"
        }
      ],
      "name": "Transfer",
      "type": "event"
    },
    {
      "inputs": [
        {
          "internalType": "uint256",
          "name": "",
          "type": "uint256"
        }
      ],
      "name": "ElectionRecord",
      "outputs": [
        {
          "internalType": "uint256",
          "name": "",
          "type": "uint256"
        }
      ],
      "stateMutability": "view",
      "type": "function"
    },
    {
      "inputs": [
        {
          "internalType": "address",
          "name": "",
          "type": "address"
        }
      ],
      "name": "VoterRecord",
      "outputs": [
        {
          "internalType": "bool",
          "name": "",
          "type": "bool"
        }
      ],
      "stateMutability": "view",
      "type": "function"
    },
    {
      "inputs": [
        {
          "internalType": "address",
          "name": "owner",
          "type": "address"
        },
        {
          "internalType": "address",
          "name": "spender",
          "type": "address"
        }
      ],
      "name": "allowance",
      "outputs": [
        {
          "internalType": "uint256",
          "name": "",
          "type": "uint256"
        }
      ],
      "stateMutability": "view",
      "type": "function"
    },
    {
      "inputs": [
        {
          "internalType": "address",
          "name": "spender",
          "type": "address"
        },
        {
          "internalType": "uint256",
          "name": "amount",
          "type": "uint256"
        }
      ],
      "name": "approve",
      "outputs": [
        {
          "internalType": "bool",
          "name": "",
          "type": "bool"
        }
      ],
      "stateMutability": "nonpayable",
      "type": "function"
    },
    {
      "inputs": [
        {
          "internalType": "address",
          "name": "account",
          "type": "address"
        }
      ],
      "name": "balanceOf",
      "outputs": [
        {
          "internalType": "uint256",
          "name": "",
          "type": "uint256"
        }
      ],
      "stateMutability": "view",
      "type": "function"
    },
    {
      "inputs": [],
      "name": "decimals",
      "outputs": [
        {
          "internalType": "uint8",
          "name": "",
          "type": "uint8"
        }
      ],
      "stateMutability": "view",
      "type": "function"
    },
    {
      "inputs": [
        {
          "internalType": "address",
          "name": "spender",
          "type": "address"
        },
        {
          "internalType": "uint256",
          "name": "subtractedValue",
          "type": "uint256"
        }
      ],
      "name": "decreaseAllowance",
      "outputs": [
        {
          "internalType": "bool",
          "name": "",
          "type": "bool"
        }
      ],
      "stateMutability": "nonpayable",
      "type": "function"
    },
    {
      "inputs": [
        {
          "internalType": "address",
          "name": "spender",
          "type": "address"
        },
        {
          "internalType": "uint256",
          "name": "addedValue",
          "type": "uint256"
        }
      ],
      "name": "increaseAllowance",
      "outputs": [
        {
          "internalType": "bool",
          "name": "",
          "type": "bool"
        }
      ],
      "stateMutability": "nonpayable",
      "type": "function"
    },
    {
      "inputs": [
        {
          "internalType": "address payable",
          "name": "_voter",
          "type": "address"
        }
      ],
      "name": "issueToken",
      "outputs": [],
      "stateMutability": "nonpayable",
      "type": "function"
    },
    {
      "inputs": [],
      "name": "name",
      "outputs": [
        {
          "internalType": "string",
          "name": "",
          "type": "string"
        }
      ],
      "stateMutability": "view",
      "type": "function"
    },
    {
      "inputs": [],
      "name": "result",
      "outputs": [
        {
          "internalType": "string",
          "name": "",
          "type": "string"
        }
      ],
      "stateMutability": "view",
      "type": "function"
    },
    {
      "inputs": [],
      "name": "symbol",
      "outputs": [
        {
          "internalType": "string",
          "name": "",
          "type": "string"
        }
      ],
      "stateMutability": "view",
      "type": "function"
    },
    {
      "inputs": [],
      "name": "totalSupply",
      "outputs": [
        {
          "internalType": "uint256",
          "name": "",
          "type": "uint256"
        }
      ],
      "stateMutability": "view",
      "type": "function"
    },
    {
      "inputs": [
        {
          "internalType": "address",
          "name": "to",
          "type": "address"
        },
        {
          "internalType": "uint256",
          "name": "amount",
          "type": "uint256"
        }
      ],
      "name": "transfer",
      "outputs": [
        {
          "internalType": "bool",
          "name": "",
          "type": "bool"
        }
      ],
      "stateMutability": "nonpayable",
      "type": "function"
    },
    {
      "inputs": [
        {
          "internalType": "address",
          "name": "from",
          "type": "address"
        },
        {
          "internalType": "address",
          "name": "to",
          "type": "address"
        },
        {
          "internalType": "uint256",
          "name": "amount",
          "type": "uint256"
        }
      ],
      "name": "transferFrom",
      "outputs": [
        {
          "internalType": "bool",
          "name": "",
          "type": "bool"
        }
      ],
      "stateMutability": "nonpayable",
      "type": "function"
    },
    {
      "inputs": [
        {
          "internalType": "address",
          "name": "_voter",
          "type": "address"
        },
        {
          "internalType": "uint256",
          "name": "_can",
          "type": "uint256"
        }
      ],
      "name": "vote",
      "outputs": [
        {
          "internalType": "string",
          "name": "",
          "type": "string"
        }
      ],
      "stateMutability": "nonpayable",
      "type": "function"
    }
  ],
  "bytecode": "0x60806040526040518060a001604052806040518060400160405280600381526020017f414243000000000000000000000000000000000000000000000000000000000081525081526020016040518060400160405280600381526020017f424344000000000000000000000000000000000000000000000000000000000081525081526020016040518060400160405280600381526020017f505152000000000000000000000000000000000000000000000000000000000081525081526020016040518060400160405280600381526020017f545556000000000000000000000000000000000000000000000000000000000081525081526020016040518060400160405280600381526020017f58595a0000000000000000000000000000000000000000000000000000000000815250815250600690600562000146929190620003e5565b503480156200015457600080fd5b506040518060400160405280600681526020017f564f54494e4700000000000000000000000000000000000000000000000000008152506040518060400160405280600381526020017f494e5600000000000000000000000000000000000000000000000000000000008152508160039081620001d291906200074c565b508060049081620001e491906200074c565b50505033600560006101000a81548173ffffffffffffffffffffffffffffffffffffffff021916908373ffffffffffffffffffffffffffffffffffffffff1602179055506200025d600560009054906101000a900473ffffffffffffffffffffffffffffffffffffffff16600f6200026360201b60201c565b6200094e565b600073ffffffffffffffffffffffffffffffffffffffff168273ffffffffffffffffffffffffffffffffffffffff1603620002d5576040517f08c379a0000000000000000000000000000000000000000000000000000000008152600401620002cc9062000894565b60405180910390fd5b620002e960008383620003db60201b60201c565b8060026000828254620002fd9190620008e5565b92505081905550806000808473ffffffffffffffffffffffffffffffffffffffff1673ffffffffffffffffffffffffffffffffffffffff1681526020019081526020016000206000828254620003549190620008e5565b925050819055508173ffffffffffffffffffffffffffffffffffffffff16600073ffffffffffffffffffffffffffffffffffffffff167fddf252ad1be2c89b69c2b068fc378daa952ba7f163c4a11628f55a4df523b3ef83604051620003bb919062000931565b60405180910390a3620003d760008383620003e060201b60201c565b5050565b505050565b505050565b82805482825590600052602060002090810192821562000432579160200282015b82811115620004315782518290816200042091906200074c565b509160200191906001019062000406565b5b50905062000441919062000445565b5090565b5b808211156200046957600081816200045f91906200046d565b5060010162000446565b5090565b5080546200047b906200053b565b6000825580601f106200048f5750620004b0565b601f016020900490600052602060002090810190620004af9190620004b3565b5b50565b5b80821115620004ce576000816000905550600101620004b4565b5090565b600081519050919050565b7f4e487b7100000000000000000000000000000000000000000000000000000000600052604160045260246000fd5b7f4e487b7100000000000000000000000000000000000000000000000000000000600052602260045260246000fd5b600060028204905060018216806200055457607f821691505b6020821081036200056a57620005696200050c565b5b50919050565b60008190508160005260206000209050919050565b60006020601f8301049050919050565b600082821b905092915050565b600060088302620005d47fffffffffffffffffffffffffffffffffffffffffffffffffffffffffffffffff8262000595565b620005e0868362000595565b95508019841693508086168417925050509392505050565b6000819050919050565b6000819050919050565b60006200062d620006276200062184620005f8565b62000602565b620005f8565b9050919050565b6000819050919050565b62000649836200060c565b62000661620006588262000634565b848454620005a2565b825550505050565b600090565b6200067862000669565b620006858184846200063e565b505050565b5b81811015620006ad57620006a16000826200066e565b6001810190506200068b565b5050565b601f821115620006fc57620006c68162000570565b620006d18462000585565b81016020851015620006e1578190505b620006f9620006f08562000585565b8301826200068a565b50505b505050565b600082821c905092915050565b6000620007216000198460080262000701565b1980831691505092915050565b60006200073c83836200070e565b9150826002028217905092915050565b6200075782620004d2565b67ffffffffffffffff811115620007735762000772620004dd565b5b6200077f82546200053b565b6200078c828285620006b1565b600060209050601f831160018114620007c45760008415620007af578287015190505b620007bb85826200072e565b8655506200082b565b601f198416620007d48662000570565b60005b82811015620007fe57848901518255600182019150602085019450602081019050620007d7565b868310156200081e57848901516200081a601f8916826200070e565b8355505b6001600288020188555050505b505050505050565b600082825260208201905092915050565b7f45524332303a206d696e7420746f20746865207a65726f206164647265737300600082015250565b60006200087c601f8362000833565b9150620008898262000844565b602082019050919050565b60006020820190508181036000830152620008af816200086d565b9050919050565b7f4e487b7100000000000000000000000000000000000000000000000000000000600052601160045260246000fd5b6000620008f282620005f8565b9150620008ff83620005f8565b92508282019050808211156200091a5762000919620008b6565b5b92915050565b6200092b81620005f8565b82525050565b600060208201905062000948600083018462000920565b92915050565b611ca0806200095e6000396000f3fe608060405234801561001057600080fd5b50600436106101005760003560e01c8063653721471161009757806395d89b411161006657806395d89b41146102e9578063a457c2d714610307578063a9059cbb14610337578063dd62ed3e1461036757610100565b8063653721471461024f57806370a082311461026d578063890340821461029d578063929968c0146102b957610100565b8063313ce567116100d3578063313ce567146101a157806339509351146101bf57806355b7b2b9146101ef5780635f74bbde1461021f57610100565b806306fdde0314610105578063095ea7b31461012357806318160ddd1461015357806323b872dd14610171575b600080fd5b61010d610397565b60405161011a91906110e8565b60405180910390f35b61013d600480360381019061013891906111a3565b610429565b60405161014a91906111fe565b60405180910390f35b61015b61044c565b6040516101689190611228565b60405180910390f35b61018b60048036038101906101869190611243565b610456565b60405161019891906111fe565b60405180910390f35b6101a9610485565b6040516101b691906112b2565b60405180910390f35b6101d960048036038101906101d491906111a3565b61048e565b6040516101e691906111fe565b60405180910390f35b610209600480360381019061020491906112cd565b6104c5565b60405161021691906111fe565b60405180910390f35b610239600480360381019061023491906111a3565b6104e5565b60405161024691906110e8565b60405180910390f35b610257610778565b60405161026491906110e8565b60405180910390f35b610287600480360381019061028291906112cd565b610935565b6040516102949190611228565b60405180910390f35b6102b760048036038101906102b29190611338565b61097d565b005b6102d360048036038101906102ce9190611365565b6109a7565b6040516102e09190611228565b60405180910390f35b6102f16109bf565b6040516102fe91906110e8565b60405180910390f35b610321600480360381019061031c91906111a3565b610a51565b60405161032e91906111fe565b60405180910390f35b610351600480360381019061034c91906111a3565b610ac8565b60405161035e91906111fe565b60405180910390f35b610381600480360381019061037c9190611392565b610aeb565b60405161038e9190611228565b60405180910390f35b6060600380546103a690611401565b80601f01602080910402602001604051908101604052809291908181526020018280546103d290611401565b801561041f5780601f106103f45761010080835404028352916020019161041f565b820191906000526020600020905b81548152906001019060200180831161040257829003601f168201915b5050505050905090565b600080610434610b72565b9050610441818585610b7a565b600191505092915050565b6000600254905090565b600080610461610b72565b905061046e858285610d43565b610479858585610dcf565b60019150509392505050565b60006012905090565b600080610499610b72565b90506104ba8185856104ab8589610aeb565b6104b59190611461565b610b7a565b600191505092915050565b60086020528060005260406000206000915054906101000a900460ff1681565b60606000829050600084905060006104fc82610935565b0361053c576040517f08c379a000000000000000000000000000000000000000000000000000000000815260040161053390611507565b60405180910390fd5b6000821015801561054d5750600582105b61058c576040517f08c379a000000000000000000000000000000000000000000000000000000000815260040161058390611599565b60405180910390fd5b60011515600860008373ffffffffffffffffffffffffffffffffffffffff1673ffffffffffffffffffffffffffffffffffffffff16815260200190815260200160002060009054906101000a900460ff1615150361061f576040517f08c379a00000000000000000000000000000000000000000000000000000000081526004016106169061162b565b60405180910390fd5b6000600683815481106106355761063461164b565b5b90600052602060002001805461064a90611401565b80601f016020809104026020016040519081016040528092919081815260200182805461067690611401565b80156106c35780601f10610698576101008083540402835291602001916106c3565b820191906000526020600020905b8154815290600101906020018083116106a657829003601f168201915b5050505050905060016007600085815260200190815260200160002060008282546106ee9190611461565b925050819055506001600860008473ffffffffffffffffffffffffffffffffffffffff1673ffffffffffffffffffffffffffffffffffffffff16815260200190815260200160002060006101000a81548160ff0219169083151502179055508060405160200161075e9190611702565b604051602081830303815290604052935050505092915050565b6060600560009054906101000a900473ffffffffffffffffffffffffffffffffffffffff1673ffffffffffffffffffffffffffffffffffffffff163373ffffffffffffffffffffffffffffffffffffffff161461080a576040517f08c379a0000000000000000000000000000000000000000000000000000000008152600401610801906117a9565b60405180910390fd5b60008060005b600581101561086157826007600083815260200190815260200160002054111561084e57600760008281526020019081526020016000205492508091505b8080610859906117c9565b915050610810565b506000600682815481106108785761087761164b565b5b90600052602060002001805461088d90611401565b80601f01602080910402602001604051908101604052809291908181526020018280546108b990611401565b80156109065780601f106108db57610100808354040283529160200191610906565b820191906000526020600020905b8154815290600101906020018083116108e957829003601f168201915b505050505090508060405160200161091e919061185d565b604051602081830303815290604052935050505090565b60008060008373ffffffffffffffffffffffffffffffffffffffff1673ffffffffffffffffffffffffffffffffffffffff168152602001908152602001600020549050919050565b6000819050600061098d82610935565b1461099757600080fd5b6109a2816001610ac8565b505050565b60076020528060005260406000206000915090505481565b6060600480546109ce90611401565b80601f01602080910402602001604051908101604052809291908181526020018280546109fa90611401565b8015610a475780601f10610a1c57610100808354040283529160200191610a47565b820191906000526020600020905b815481529060010190602001808311610a2a57829003601f168201915b5050505050905090565b600080610a5c610b72565b90506000610a6a8286610aeb565b905083811015610aaf576040517f08c379a0000000000000000000000000000000000000000000000000000000008152600401610aa690611904565b60405180910390fd5b610abc8286868403610b7a565b60019250505092915050565b600080610ad3610b72565b9050610ae0818585610dcf565b600191505092915050565b6000600160008473ffffffffffffffffffffffffffffffffffffffff1673ffffffffffffffffffffffffffffffffffffffff16815260200190815260200160002060008373ffffffffffffffffffffffffffffffffffffffff1673ffffffffffffffffffffffffffffffffffffffff16815260200190815260200160002054905092915050565b600033905090565b600073ffffffffffffffffffffffffffffffffffffffff168373ffffffffffffffffffffffffffffffffffffffff1603610be9576040517f08c379a0000000000000000000000000000000000000000000000000000000008152600401610be090611996565b60405180910390fd5b600073ffffffffffffffffffffffffffffffffffffffff168273ffffffffffffffffffffffffffffffffffffffff1603610c58576040517f08c379a0000000000000000000000000000000000000000000000000000000008152600401610c4f90611a28565b60405180910390fd5b80600160008573ffffffffffffffffffffffffffffffffffffffff1673ffffffffffffffffffffffffffffffffffffffff16815260200190815260200160002060008473ffffffffffffffffffffffffffffffffffffffff1673ffffffffffffffffffffffffffffffffffffffff168152602001908152602001600020819055508173ffffffffffffffffffffffffffffffffffffffff168373ffffffffffffffffffffffffffffffffffffffff167f8c5be1e5ebec7d5bd14f71427d1e84f3dd0314c0f7b2291e5b200ac8c7c3b92583604051610d369190611228565b60405180910390a3505050565b6000610d4f8484610aeb565b90507fffffffffffffffffffffffffffffffffffffffffffffffffffffffffffffffff8114610dc95781811015610dbb576040517f08c379a0000000000000000000000000000000000000000000000000000000008152600401610db290611a94565b60405180910390fd5b610dc88484848403610b7a565b5b50505050565b600073ffffffffffffffffffffffffffffffffffffffff168373ffffffffffffffffffffffffffffffffffffffff1603610e3e576040517f08c379a0000000000000000000000000000000000000000000000000000000008152600401610e3590611b26565b60405180910390fd5b600073ffffffffffffffffffffffffffffffffffffffff168273ffffffffffffffffffffffffffffffffffffffff1603610ead576040517f08c379a0000000000000000000000000000000000000000000000000000000008152600401610ea490611bb8565b60405180910390fd5b610eb883838361104e565b60008060008573ffffffffffffffffffffffffffffffffffffffff1673ffffffffffffffffffffffffffffffffffffffff16815260200190815260200160002054905081811015610f3e576040517f08c379a0000000000000000000000000000000000000000000000000000000008152600401610f3590611c4a565b60405180910390fd5b8181036000808673ffffffffffffffffffffffffffffffffffffffff1673ffffffffffffffffffffffffffffffffffffffff16815260200190815260200160002081905550816000808573ffffffffffffffffffffffffffffffffffffffff1673ffffffffffffffffffffffffffffffffffffffff1681526020019081526020016000206000828254610fd19190611461565b925050819055508273ffffffffffffffffffffffffffffffffffffffff168473ffffffffffffffffffffffffffffffffffffffff167fddf252ad1be2c89b69c2b068fc378daa952ba7f163c4a11628f55a4df523b3ef846040516110359190611228565b60405180910390a3611048848484611053565b50505050565b505050565b505050565b600081519050919050565b600082825260208201905092915050565b60005b83811015611092578082015181840152602081019050611077565b60008484015250505050565b6000601f19601f8301169050919050565b60006110ba82611058565b6110c48185611063565b93506110d4818560208601611074565b6110dd8161109e565b840191505092915050565b6000602082019050818103600083015261110281846110af565b905092915050565b600080fd5b600073ffffffffffffffffffffffffffffffffffffffff82169050919050565b600061113a8261110f565b9050919050565b61114a8161112f565b811461115557600080fd5b50565b60008135905061116781611141565b92915050565b6000819050919050565b6111808161116d565b811461118b57600080fd5b50565b60008135905061119d81611177565b92915050565b600080604083850312156111ba576111b961110a565b5b60006111c885828601611158565b92505060206111d98582860161118e565b9150509250929050565b60008115159050919050565b6111f8816111e3565b82525050565b600060208201905061121360008301846111ef565b92915050565b6112228161116d565b82525050565b600060208201905061123d6000830184611219565b92915050565b60008060006060848603121561125c5761125b61110a565b5b600061126a86828701611158565b935050602061127b86828701611158565b925050604061128c8682870161118e565b9150509250925092565b600060ff82169050919050565b6112ac81611296565b82525050565b60006020820190506112c760008301846112a3565b92915050565b6000602082840312156112e3576112e261110a565b5b60006112f184828501611158565b91505092915050565b60006113058261110f565b9050919050565b611315816112fa565b811461132057600080fd5b50565b6000813590506113328161130c565b92915050565b60006020828403121561134e5761134d61110a565b5b600061135c84828501611323565b91505092915050565b60006020828403121561137b5761137a61110a565b5b60006113898482850161118e565b91505092915050565b600080604083850312156113a9576113a861110a565b5b60006113b785828601611158565b92505060206113c885828601611158565b9150509250929050565b7f4e487b7100000000000000000000000000000000000000000000000000000000600052602260045260246000fd5b6000600282049050600182168061141957607f821691505b60208210810361142c5761142b6113d2565b5b50919050565b7f4e487b7100000000000000000000000000000000000000000000000000000000600052601160045260246000fd5b600061146c8261116d565b91506114778361116d565b925082820190508082111561148f5761148e611432565b5b92915050565b7f596f7520646f6e2774206861766520616e7920746f6b656e7320746f2070617260008201527f746963697061746520696e2074686520456c656374696f6e2e00000000000000602082015250565b60006114f1603983611063565b91506114fc82611495565b604082019050919050565b60006020820190508181036000830152611520816114e4565b9050919050565b7f596f752068617665206d61646520616e20696e76616c69642063616e6469646160008201527f74652073656c656374696f6e2100000000000000000000000000000000000000602082015250565b6000611583602d83611063565b915061158e82611527565b604082019050919050565b600060208201905081810360008301526115b281611576565b9050919050565b7f596f75206861766520616c726561647920766f74656420696e2074686973206560008201527f6c656374696f6e00000000000000000000000000000000000000000000000000602082015250565b6000611615602783611063565b9150611620826115b9565b604082019050919050565b6000602082019050818103600083015261164481611608565b9050919050565b7f4e487b7100000000000000000000000000000000000000000000000000000000600052603260045260246000fd5b7f596f757220766f746520666f7220000000000000000000000000000000000000815250565b600081905092915050565b60006116b682611058565b6116c081856116a0565b93506116d0818560208601611074565b80840191505092915050565b7f20686173206265656e207375636365737366756c6c79207265636f7264656400815250565b600061170d8261167a565b600e8201915061171d82846116ab565b9150611728826116dc565b601f8201915081905092915050565b7f4f6e6c7920746865206f776e65722063616e2063616c6c20666f7220456c656360008201527f74696f6e20526573756c74730000000000000000000000000000000000000000602082015250565b6000611793602c83611063565b915061179e82611737565b604082019050919050565b600060208201905081810360008301526117c281611786565b9050919050565b60006117d48261116d565b91507fffffffffffffffffffffffffffffffffffffffffffffffffffffffffffffffff820361180657611805611432565b5b600182019050919050565b7f43616e6469646174652000000000000000000000000000000000000000000000815250565b7f2068617320776f6e2074686520456c656374696f6e7321000000000000000000815250565b600061186882611811565b600a8201915061187882846116ab565b915061188382611837565b60178201915081905092915050565b7f45524332303a2064656372656173656420616c6c6f77616e63652062656c6f7760008201527f207a65726f000000000000000000000000000000000000000000000000000000602082015250565b60006118ee602583611063565b91506118f982611892565b604082019050919050565b6000602082019050818103600083015261191d816118e1565b9050919050565b7f45524332303a20617070726f76652066726f6d20746865207a65726f2061646460008201527f7265737300000000000000000000000000000000000000000000000000000000602082015250565b6000611980602483611063565b915061198b82611924565b604082019050919050565b600060208201905081810360008301526119af81611973565b9050919050565b7f45524332303a20617070726f766520746f20746865207a65726f20616464726560008201527f7373000000000000000000000000000000000000000000000000000000000000602082015250565b6000611a12602283611063565b9150611a1d826119b6565b604082019050919050565b60006020820190508181036000830152611a4181611a05565b9050919050565b7f45524332303a20696e73756666696369656e7420616c6c6f77616e6365000000600082015250565b6000611a7e601d83611063565b9150611a8982611a48565b602082019050919050565b60006020820190508181036000830152611aad81611a71565b9050919050565b7f45524332303a207472616e736665722066726f6d20746865207a65726f20616460008201527f6472657373000000000000000000000000000000000000000000000000000000602082015250565b6000611b10602583611063565b9150611b1b82611ab4565b604082019050919050565b60006020820190508181036000830152611b3f81611b03565b9050919050565b7f45524332303a207472616e7366657220746f20746865207a65726f206164647260008201527f6573730000000000000000000000000000000000000000000000000000000000602082015250565b6000611ba2602383611063565b9150611bad82611b46565b604082019050919050565b60006020820190508181036000830152611bd181611b95565b9050919050565b7f45524332303a207472616e7366657220616d6f756e742065786365656473206260008201527f616c616e63650000000000000000000000000000000000000000000000000000602082015250565b6000611c34602683611063565b9150611c3f82611bd8565b604082019050919050565b60006020820190508181036000830152611c6381611c27565b905091905056fea2646970667358221220284d19de7892a4ccc4cbd57644f0f5af0775cb06f6ee6a2adb5eb84f278437d764736f6c63430008110033",
  "linkReferences": {},
  "deployedLinkReferences": {}
}